:020000040000FA
:020000000B28CB
:10000800DE00030E8312A3000A08A40011280C289E
:100018008312A801A90183013C280C1C1428152867
:1000280035280C100130A8070318A90A0030A907C1
:10003800053028062904031D2228232835280514FD
:100048000B30A2002630A1005D30A000A00B2A28AA
:10005800A10B2A28A20B2A28312883120510A801EF
:10006800A90124088A00230E8300DE0E5E0E090013
:100078008B018312900183168C01051083120510E1
:100088008B170B1705140B30A7002630A6005D3020
:10009800A500A50B4D28A60B4D28A70B4D285428C5
:1000A80083120510101483160C1483120C102230BE
:0800B8008F008E015E280B2869
:02400E00E5319A
:00000001FF
